{
  "_format": "hh-sol-artifact-1",
  "contractName": "NFT",
  "sourceName": "contracts/NFT.sol",
  "abi": [
    {
      "inputs": [
        {
          "internalType": "address",
          "name": "marketplaceAddress",
          "type": "address"
        }
      ],
      "stateMutability": "nonpayable",
      "type": "constructor"
    },
    {
      "anonymous": false,
      "inputs": [
        {
          "indexed": true,
          "internalType": "address",
          "name": "owner",
          "type": "address"
        },
        {
          "indexed": true,
          "internalType": "address",
          "name": "approved",
          "type": "address"
        },
        {
          "indexed": true,
          "internalType": "uint256",
          "name": "tokenId",
          "type": "uint256"
        }
      ],
      "name": "Approval",
      "type": "event"
    },
    {
      "anonymous": false,
      "inputs": [
        {
          "indexed": true,
          "internalType": "address",
          "name": "owner",
          "type": "address"
        },
        {
          "indexed": true,
          "internalType": "address",
          "name": "operator",
          "type": "address"
        },
        {
          "indexed": false,
          "internalType": "bool",
          "name": "approved",
          "type": "bool"
        }
      ],
      "name": "ApprovalForAll",
      "type": "event"
    },
    {
      "anonymous": false,
      "inputs": [
        {
          "indexed": true,
          "internalType": "address",
          "name": "from",
          "type": "address"
        },
        {
          "indexed": true,
          "internalType": "address",
          "name": "to",
          "type": "address"
        },
        {
          "indexed": true,
          "internalType": "uint256",
          "name": "tokenId",
          "type": "uint256"
        }
      ],
      "name": "Transfer",
      "type": "event"
    },
    {
      "inputs": [
        {
          "internalType": "address",
          "name": "to",
          "type": "address"
        },
        {
          "internalType": "uint256",
          "name": "tokenId",
          "type": "uint256"
        }
      ],
      "name": "approve",
      "outputs": [],
      "stateMutability": "nonpayable",
      "type": "function"
    },
    {
      "inputs": [
        {
          "internalType": "address",
          "name": "owner",
          "type": "address"
        }
      ],
      "name": "balanceOf",
      "outputs": [
        {
          "internalType": "uint256",
          "name": "",
          "type": "uint256"
        }
      ],
      "stateMutability": "view",
      "type": "function"
    },
    {
      "inputs": [
        {
          "internalType": "string",
          "name": "tokenURI",
          "type": "string"
        }
      ],
      "name": "createToken",
      "outputs": [
        {
          "internalType": "uint256",
          "name": "",
          "type": "uint256"
        }
      ],
      "stateMutability": "nonpayable",
      "type": "function"
    },
    {
      "inputs": [
        {
          "internalType": "uint256",
          "name": "tokenId",
          "type": "uint256"
        }
      ],
      "name": "getApproved",
      "outputs": [
        {
          "internalType": "address",
          "name": "",
          "type": "address"
        }
      ],
      "stateMutability": "view",
      "type": "function"
    },
    {
      "inputs": [],
      "name": "getNFTMarketAddress",
      "outputs": [
        {
          "internalType": "address",
          "name": "",
          "type": "address"
        }
      ],
      "stateMutability": "view",
      "type": "function"
    },
    {
      "inputs": [
        {
          "internalType": "address",
          "name": "owner",
          "type": "address"
        },
        {
          "internalType": "address",
          "name": "operator",
          "type": "address"
        }
      ],
      "name": "isApprovedForAll",
      "outputs": [
        {
          "internalType": "bool",
          "name": "",
          "type": "bool"
        }
      ],
      "stateMutability": "view",
      "type": "function"
    },
    {
      "inputs": [],
      "name": "name",
      "outputs": [
        {
          "internalType": "string",
          "name": "",
          "type": "string"
        }
      ],
      "stateMutability": "view",
      "type": "function"
    },
    {
      "inputs": [
        {
          "internalType": "uint256",
          "name": "tokenId",
          "type": "uint256"
        }
      ],
      "name": "ownerOf",
      "outputs": [
        {
          "internalType": "address",
          "name": "",
          "type": "address"
        }
      ],
      "stateMutability": "view",
      "type": "function"
    },
    {
      "inputs": [
        {
          "internalType": "address",
          "name": "from",
          "type": "address"
        },
        {
          "internalType": "address",
          "name": "to",
          "type": "address"
        },
        {
          "internalType": "uint256",
          "name": "tokenId",
          "type": "uint256"
        }
      ],
      "name": "safeTransferFrom",
      "outputs": [],
      "stateMutability": "nonpayable",
      "type": "function"
    },
    {
      "inputs": [
        {
          "internalType": "address",
          "name": "from",
          "type": "address"
        },
        {
          "internalType": "address",
          "name": "to",
          "type": "address"
        },
        {
          "internalType": "uint256",
          "name": "tokenId",
          "type": "uint256"
        },
        {
          "internalType": "bytes",
          "name": "data",
          "type": "bytes"
        }
      ],
      "name": "safeTransferFrom",
      "outputs": [],
      "stateMutability": "nonpayable",
      "type": "function"
    },
    {
      "inputs": [
        {
          "internalType": "address",
          "name": "operator",
          "type": "address"
        },
        {
          "internalType": "bool",
          "name": "approved",
          "type": "bool"
        }
      ],
      "name": "setApprovalForAll",
      "outputs": [],
      "stateMutability": "nonpayable",
      "type": "function"
    },
    {
      "inputs": [
        {
          "internalType": "bytes4",
          "name": "interfaceId",
          "type": "bytes4"
        }
      ],
      "name": "supportsInterface",
      "outputs": [
        {
          "internalType": "bool",
          "name": "",
          "type": "bool"
        }
      ],
      "stateMutability": "view",
      "type": "function"
    },
    {
      "inputs": [],
      "name": "symbol",
      "outputs": [
        {
          "internalType": "string",
          "name": "",
          "type": "string"
        }
      ],
      "stateMutability": "view",
      "type": "function"
    },
    {
      "inputs": [
        {
          "internalType": "uint256",
          "name": "tokenId",
          "type": "uint256"
        }
      ],
      "name": "tokenURI",
      "outputs": [
        {
          "internalType": "string",
          "name": "",
          "type": "string"
        }
      ],
      "stateMutability": "view",
      "type": "function"
    },
    {
      "inputs": [
        {
          "internalType": "address",
          "name": "from",
          "type": "address"
        },
        {
          "internalType": "address",
          "name": "to",
          "type": "address"
        },
        {
          "internalType": "uint256",
          "name": "tokenId",
          "type": "uint256"
        }
      ],
      "name": "transferFrom",
      "outputs": [],
      "stateMutability": "nonpayable",
      "type": "function"
    }
  ],
  "bytecode": "0x60806040523480156200001157600080fd5b5060405162002bf438038062002bf4833981810160405281019062000037919062000239565b6040518060400160405280600f81526020017f4d657461766572736520546f6b656e00000000000000000000000000000000008152506040518060400160405280600481526020017f4d455454000000000000000000000000000000000000000000000000000000008152508160009080519060200190620000bb9291906200011f565b508060019080519060200190620000d49291906200011f565b50505080600860006101000a81548173ffffffffffffffffffffffffffffffffffffffff021916908373ffffffffffffffffffffffffffffffffffffffff16021790555050620002d0565b8280546200012d906200029a565b90600052602060002090601f0160209004810192826200015157600085556200019d565b82601f106200016c57805160ff19168380011785556200019d565b828001600101855582156200019d579182015b828111156200019c5782518255916020019190600101906200017f565b5b509050620001ac9190620001b0565b5090565b5b80821115620001cb576000816000905550600101620001b1565b5090565b600080fd5b600073ffffffffffffffffffffffffffffffffffffffff82169050919050565b60006200020182620001d4565b9050919050565b6200021381620001f4565b81146200021f57600080fd5b50565b600081519050620002338162000208565b92915050565b600060208284031215620002525762000251620001cf565b5b6000620002628482850162000222565b91505092915050565b7f4e487b7100000000000000000000000000000000000000000000000000000000600052602260045260246000fd5b60006002820490506001821680620002b357607f821691505b60208210811415620002ca57620002c96200026b565b5b50919050565b61291480620002e06000396000f3fe608060405234801561001057600080fd5b50600436106100f55760003560e01c80635847526f11610097578063a22cb46511610066578063a22cb46514610298578063b88d4fde146102b4578063c87b56dd146102d0578063e985e9c514610300576100f5565b80635847526f146101fc5780636352211e1461021a57806370a082311461024a57806395d89b411461027a576100f5565b8063095ea7b3116100d3578063095ea7b31461017857806323b872dd1461019457806342842e0e146101b057806345576f94146101cc576100f5565b806301ffc9a7146100fa57806306fdde031461012a578063081812fc14610148575b600080fd5b610114600480360381019061010f91906118f7565b610330565b604051610121919061193f565b60405180910390f35b610132610412565b60405161013f91906119f3565b60405180910390f35b610162600480360381019061015d9190611a4b565b6104a4565b60405161016f9190611ab9565b60405180910390f35b610192600480360381019061018d9190611b00565b6104ea565b005b6101ae60048036038101906101a99190611b40565b610602565b005b6101ca60048036038101906101c59190611b40565b610662565b005b6101e660048036038101906101e19190611cc8565b610682565b6040516101f39190611d20565b60405180910390f35b6102046106e6565b6040516102119190611ab9565b60405180910390f35b610234600480360381019061022f9190611a4b565b610710565b6040516102419190611ab9565b60405180910390f35b610264600480360381019061025f9190611d3b565b6107c2565b6040516102719190611d20565b60405180910390f35b61028261087a565b60405161028f91906119f3565b60405180910390f35b6102b260048036038101906102ad9190611d94565b61090c565b005b6102ce60048036038101906102c99190611e75565b610922565b005b6102ea60048036038101906102e59190611a4b565b610984565b6040516102f791906119f3565b60405180910390f35b61031a60048036038101906103159190611ef8565b610a97565b604051610327919061193f565b60405180910390f35b60007f80ac58cd000000000000000000000000000000000000000000000000000000007bffffffffffffffffffffffffffffffffffffffffffffffffffffffff1916827bffffffffffffffffffffffffffffffffffffffffffffffffffffffff191614806103fb57507f5b5e139f000000000000000000000000000000000000000000000000000000007bffffffffffffffffffffffffffffffffffffffffffffffffffffffff1916827bffffffffffffffffffffffffffffffffffffffffffffffffffffffff1916145b8061040b575061040a82610b2b565b5b9050919050565b60606000805461042190611f67565b80601f016020809104026020016040519081016040528092919081815260200182805461044d90611f67565b801561049a5780601f1061046f5761010080835404028352916020019161049a565b820191906000526020600020905b81548152906001019060200180831161047d57829003601f168201915b5050505050905090565b60006104af82610b95565b6004600083815260200190815260200160002060009054906101000a900473ffffffffffffffffffffffffffffffffffffffff169050919050565b60006104f582610710565b90508073ffffffffffffffffffffffffffffffffffffffff168373ffffffffffffffffffffffffffffffffffffffff161415610566576040517f08c379a000000000000000000000000000000000000000000000000000000000815260040161055d9061200b565b60405180910390fd5b8073ffffffffffffffffffffffffffffffffffffffff16610585610be0565b73ffffffffffffffffffffffffffffffffffffffff1614806105b457506105b3816105ae610be0565b610a97565b5b6105f3576040517f08c379a00000000000000000000000000000000000000000000000000000000081526004016105ea9061209d565b60405180910390fd5b6105fd8383610be8565b505050565b61061361060d610be0565b82610ca1565b610652576040517f08c379a00000000000000000000000000000000000000000000000000000000081526004016106499061212f565b60405180910390fd5b61065d838383610d36565b505050565b61067d83838360405180602001604052806000815250610922565b505050565b600061068e6007610f9d565b600061069a6007610fb3565b90506106a63382610fc1565b6106b0818461119b565b6106dd600860009054906101000a900473ffffffffffffffffffffffffffffffffffffffff16600161090c565b80915050919050565b6000600860009054906101000a900473ffffffffffffffffffffffffffffffffffffffff16905090565b6000806002600084815260200190815260200160002060009054906101000a900473ffffffffffffffffffffffffffffffffffffffff169050600073ffffffffffffffffffffffffffffffffffffffff168173ffffffffffffffffffffffffffffffffffffffff1614156107b9576040517f08c379a00000000000000000000000000000000000000000000000000000000081526004016107b09061219b565b60405180910390fd5b80915050919050565b60008073ffffffffffffffffffffffffffffffffffffffff168273ffffffffffffffffffffffffffffffffffffffff161415610833576040517f08c379a000000000000000000000000000000000000000000000000000000000815260040161082a9061222d565b60405180910390fd5b600360008373ffffffffffffffffffffffffffffffffffffffff1673ffffffffffffffffffffffffffffffffffffffff168152602001908152602001600020549050919050565b60606001805461088990611f67565b80601f01602080910402602001604051908101604052809291908181526020018280546108b590611f67565b80156109025780601f106108d757610100808354040283529160200191610902565b820191906000526020600020905b8154815290600101906020018083116108e557829003601f168201915b5050505050905090565b61091e610917610be0565b838361120f565b5050565b61093361092d610be0565b83610ca1565b610972576040517f08c379a00000000000000000000000000000000000000000000000000000000081526004016109699061212f565b60405180910390fd5b61097e8484848461137c565b50505050565b606061098f82610b95565b60006006600084815260200190815260200160002080546109af90611f67565b80601f01602080910402602001604051908101604052809291908181526020018280546109db90611f67565b8015610a285780601f106109fd57610100808354040283529160200191610a28565b820191906000526020600020905b815481529060010190602001808311610a0b57829003601f168201915b505050505090506000610a396113d8565b9050600081511415610a4f578192505050610a92565b600082511115610a84578082604051602001610a6c929190612289565b60405160208183030381529060405292505050610a92565b610a8d846113ef565b925050505b919050565b6000600560008473ffffffffffffffffffffffffffffffffffffffff1673ffffffffffffffffffffffffffffffffffffffff16815260200190815260200160002060008373ffffffffffffffffffffffffffffffffffffffff1673ffffffffffffffffffffffffffffffffffffffff16815260200190815260200160002060009054906101000a900460ff16905092915050565b60007f01ffc9a7000000000000000000000000000000000000000000000000000000007bffffffffffffffffffffffffffffffffffffffffffffffffffffffff1916827bffffffffffffffffffffffffffffffffffffffffffffffffffffffff1916149050919050565b610b9e81611457565b610bdd576040517f08c379a0000000000000000000000000000000000000000000000000000000008152600401610bd49061219b565b60405180910390fd5b50565b600033905090565b816004600083815260200190815260200160002060006101000a81548173ffffffffffffffffffffffffffffffffffffffff021916908373ffffffffffffffffffffffffffffffffffffffff160217905550808273ffffffffffffffffffffffffffffffffffffffff16610c5b83610710565b73ffffffffffffffffffffffffffffffffffffffff167f8c5be1e5ebec7d5bd14f71427d1e84f3dd0314c0f7b2291e5b200ac8c7c3b92560405160405180910390a45050565b600080610cad83610710565b90508073ffffffffffffffffffffffffffffffffffffffff168473ffffffffffffffffffffffffffffffffffffffff161480610cef5750610cee8185610a97565b5b80610d2d57508373ffffffffffffffffffffffffffffffffffffffff16610d15846104a4565b73ffffffffffffffffffffffffffffffffffffffff16145b91505092915050565b8273ffffffffffffffffffffffffffffffffffffffff16610d5682610710565b73ffffffffffffffffffffffffffffffffffffffff1614610dac576040517f08c379a0000000000000000000000000000000000000000000000000000000008152600401610da39061231f565b60405180910390fd5b600073ffffffffffffffffffffffffffffffffffffffff168273ffffffffffffffffffffffffffffffffffffffff161415610e1c576040517f08c379a0000000000000000000000000000000000000000000000000000000008152600401610e13906123b1565b60405180910390fd5b610e278383836114c3565b610e32600082610be8565b6001600360008573ffffffffffffffffffffffffffffffffffffffff1673ffffffffffffffffffffffffffffffffffffffff1681526020019081526020016000206000828254610e829190612400565b925050819055506001600360008473ffffffffffffffffffffffffffffffffffffffff1673ffffffffffffffffffffffffffffffffffffffff1681526020019081526020016000206000828254610ed99190612434565b92505081905550816002600083815260200190815260200160002060006101000a81548173ffffffffffffffffffffffffffffffffffffffff021916908373ffffffffffffffffffffffffffffffffffffffff160217905550808273ffffffffffffffffffffffffffffffffffffffff168473ffffffffffffffffffffffffffffffffffffffff167fddf252ad1be2c89b69c2b068fc378daa952ba7f163c4a11628f55a4df523b3ef60405160405180910390a4610f988383836114c8565b505050565b6001816000016000828254019250508190555050565b600081600001549050919050565b600073ffffffffffffffffffffffffffffffffffffffff168273ffffffffffffffffffffffffffffffffffffffff161415611031576040517f08c379a0000000000000000000000000000000000000000000000000000000008152600401611028906124d6565b60405180910390fd5b61103a81611457565b1561107a576040517f08c379a000000000000000000000000000000000000000000000000000000000815260040161107190612542565b60405180910390fd5b611086600083836114c3565b6001600360008473ffffffffffffffffffffffffffffffffffffffff1673ffffffffffffffffffffffffffffffffffffffff16815260200190815260200160002060008282546110d69190612434565b92505081905550816002600083815260200190815260200160002060006101000a81548173ffffffffffffffffffffffffffffffffffffffff021916908373ffffffffffffffffffffffffffffffffffffffff160217905550808273ffffffffffffffffffffffffffffffffffffffff16600073ffffffffffffffffffffffffffffffffffffffff167fddf252ad1be2c89b69c2b068fc378daa952ba7f163c4a11628f55a4df523b3ef60405160405180910390a4611197600083836114c8565b5050565b6111a482611457565b6111e3576040517f08c379a00000000000000000000000000000000000000000000000000000000081526004016111da906125d4565b60405180910390fd5b8060066000848152602001908152602001600020908051906020019061120a9291906117e8565b505050565b8173ffffffffffffffffffffffffffffffffffffffff168373ffffffffffffffffffffffffffffffffffffffff16141561127e576040517f08c379a000000000000000000000000000000000000000000000000000000000815260040161127590612640565b60405180910390fd5b80600560008573ffffffffffffffffffffffffffffffffffffffff1673ffffffffffffffffffffffffffffffffffffffff16815260200190815260200160002060008473ffffffffffffffffffffffffffffffffffffffff1673ffffffffffffffffffffffffffffffffffffffff16815260200190815260200160002060006101000a81548160ff0219169083151502179055508173ffffffffffffffffffffffffffffffffffffffff168373ffffffffffffffffffffffffffffffffffffffff167f17307eab39ab6107e8899845ad3d59bd9653f200f220920489ca2b5937696c318360405161136f919061193f565b60405180910390a3505050565b611387848484610d36565b611393848484846114cd565b6113d2576040517f08c379a00000000000000000000000000000000000000000000000000000000081526004016113c9906126d2565b60405180910390fd5b50505050565b606060405180602001604052806000815250905090565b60606113fa82610b95565b60006114046113d8565b90506000815111611424576040518060200160405280600081525061144f565b8061142e84611664565b60405160200161143f929190612289565b6040516020818303038152906040525b915050919050565b60008073ffffffffffffffffffffffffffffffffffffffff166002600084815260200190815260200160002060009054906101000a900473ffffffffffffffffffffffffffffffffffffffff1673ffffffffffffffffffffffffffffffffffffffff1614159050919050565b505050565b505050565b60006114ee8473ffffffffffffffffffffffffffffffffffffffff166117c5565b15611657578373ffffffffffffffffffffffffffffffffffffffff1663150b7a02611517610be0565b8786866040518563ffffffff1660e01b81526004016115399493929190612747565b602060405180830381600087803b15801561155357600080fd5b505af192505050801561158457506040513d601f19601f8201168201806040525081019061158191906127a8565b60015b611607573d80600081146115b4576040519150601f19603f3d011682016040523d82523d6000602084013e6115b9565b606091505b506000815114156115ff576040517f08c379a00000000000000000000000000000000000000000000000000000000081526004016115f6906126d2565b60405180910390fd5b805181602001fd5b63150b7a0260e01b7bffffffffffffffffffffffffffffffffffffffffffffffffffffffff1916817bffffffffffffffffffffffffffffffffffffffffffffffffffffffff19161491505061165c565b600190505b949350505050565b606060008214156116ac576040518060400160405280600181526020017f300000000000000000000000000000000000000000000000000000000000000081525090506117c0565b600082905060005b600082146116de5780806116c7906127d5565b915050600a826116d7919061284d565b91506116b4565b60008167ffffffffffffffff8111156116fa576116f9611b9d565b5b6040519080825280601f01601f19166020018201604052801561172c5781602001600182028036833780820191505090505b5090505b600085146117b9576001826117459190612400565b9150600a85611754919061287e565b60306117609190612434565b60f81b818381518110611776576117756128af565b5b60200101907effffffffffffffffffffffffffffffffffffffffffffffffffffffffffffff1916908160001a905350600a856117b2919061284d565b9450611730565b8093505050505b919050565b6000808273ffffffffffffffffffffffffffffffffffffffff163b119050919050565b8280546117f490611f67565b90600052602060002090601f016020900481019282611816576000855561185d565b82601f1061182f57805160ff191683800117855561185d565b8280016001018555821561185d579182015b8281111561185c578251825591602001919060010190611841565b5b50905061186a919061186e565b5090565b5b8082111561188757600081600090555060010161186f565b5090565b6000604051905090565b600080fd5b600080fd5b60007fffffffff0000000000000000000000000000000000000000000000000000000082169050919050565b6118d48161189f565b81146118df57600080fd5b50565b6000813590506118f1816118cb565b92915050565b60006020828403121561190d5761190c611895565b5b600061191b848285016118e2565b91505092915050565b60008115159050919050565b61193981611924565b82525050565b60006020820190506119546000830184611930565b92915050565b600081519050919050565b600082825260208201905092915050565b60005b83811015611994578082015181840152602081019050611979565b838111156119a3576000848401525b50505050565b6000601f19601f8301169050919050565b60006119c58261195a565b6119cf8185611965565b93506119df818560208601611976565b6119e8816119a9565b840191505092915050565b60006020820190508181036000830152611a0d81846119ba565b905092915050565b6000819050919050565b611a2881611a15565b8114611a3357600080fd5b50565b600081359050611a4581611a1f565b92915050565b600060208284031215611a6157611a60611895565b5b6000611a6f84828501611a36565b91505092915050565b600073ffffffffffffffffffffffffffffffffffffffff82169050919050565b6000611aa382611a78565b9050919050565b611ab381611a98565b82525050565b6000602082019050611ace6000830184611aaa565b92915050565b611add81611a98565b8114611ae857600080fd5b50565b600081359050611afa81611ad4565b92915050565b60008060408385031215611b1757611b16611895565b5b6000611b2585828601611aeb565b9250506020611b3685828601611a36565b9150509250929050565b600080600060608486031215611b5957611b58611895565b5b6000611b6786828701611aeb565b9350506020611b7886828701611aeb565b9250506040611b8986828701611a36565b9150509250925092565b600080fd5b600080fd5b7f4e487b7100000000000000000000000000000000000000000000000000000000600052604160045260246000fd5b611bd5826119a9565b810181811067ffffffffffffffff82111715611bf457611bf3611b9d565b5b80604052505050565b6000611c0761188b565b9050611c138282611bcc565b919050565b600067ffffffffffffffff821115611c3357611c32611b9d565b5b611c3c826119a9565b9050602081019050919050565b82818337600083830152505050565b6000611c6b611c6684611c18565b611bfd565b905082815260208101848484011115611c8757611c86611b98565b5b611c92848285611c49565b509392505050565b600082601f830112611caf57611cae611b93565b5b8135611cbf848260208601611c58565b91505092915050565b600060208284031215611cde57611cdd611895565b5b600082013567ffffffffffffffff811115611cfc57611cfb61189a565b5b611d0884828501611c9a565b91505092915050565b611d1a81611a15565b82525050565b6000602082019050611d356000830184611d11565b92915050565b600060208284031215611d5157611d50611895565b5b6000611d5f84828501611aeb565b91505092915050565b611d7181611924565b8114611d7c57600080fd5b50565b600081359050611d8e81611d68565b92915050565b60008060408385031215611dab57611daa611895565b5b6000611db985828601611aeb565b9250506020611dca85828601611d7f565b9150509250929050565b600067ffffffffffffffff821115611def57611dee611b9d565b5b611df8826119a9565b9050602081019050919050565b6000611e18611e1384611dd4565b611bfd565b905082815260208101848484011115611e3457611e33611b98565b5b611e3f848285611c49565b509392505050565b600082601f830112611e5c57611e5b611b93565b5b8135611e6c848260208601611e05565b91505092915050565b60008060008060808587031215611e8f57611e8e611895565b5b6000611e9d87828801611aeb565b9450506020611eae87828801611aeb565b9350506040611ebf87828801611a36565b925050606085013567ffffffffffffffff811115611ee057611edf61189a565b5b611eec87828801611e47565b91505092959194509250565b60008060408385031215611f0f57611f0e611895565b5b6000611f1d85828601611aeb565b9250506020611f2e85828601611aeb565b9150509250929050565b7f4e487b7100000000000000000000000000000000000000000000000000000000600052602260045260246000fd5b60006002820490506001821680611f7f57607f821691505b60208210811415611f9357611f92611f38565b5b50919050565b7f4552433732313a20617070726f76616c20746f2063757272656e74206f776e6560008201527f7200000000000000000000000000000000000000000000000000000000000000602082015250565b6000611ff5602183611965565b915061200082611f99565b604082019050919050565b6000602082019050818103600083015261202481611fe8565b9050919050565b7f4552433732313a20617070726f76652063616c6c6572206973206e6f7420746f60008201527f6b656e206f776e6572206e6f7220617070726f76656420666f7220616c6c0000602082015250565b6000612087603e83611965565b91506120928261202b565b604082019050919050565b600060208201905081810360008301526120b68161207a565b9050919050565b7f4552433732313a2063616c6c6572206973206e6f7420746f6b656e206f776e6560008201527f72206e6f7220617070726f766564000000000000000000000000000000000000602082015250565b6000612119602e83611965565b9150612124826120bd565b604082019050919050565b600060208201905081810360008301526121488161210c565b9050919050565b7f4552433732313a20696e76616c696420746f6b656e2049440000000000000000600082015250565b6000612185601883611965565b91506121908261214f565b602082019050919050565b600060208201905081810360008301526121b481612178565b9050919050565b7f4552433732313a2061646472657373207a65726f206973206e6f74206120766160008201527f6c6964206f776e65720000000000000000000000000000000000000000000000602082015250565b6000612217602983611965565b9150612222826121bb565b604082019050919050565b600060208201905081810360008301526122468161220a565b9050919050565b600081905092915050565b60006122638261195a565b61226d818561224d565b935061227d818560208601611976565b80840191505092915050565b60006122958285612258565b91506122a18284612258565b91508190509392505050565b7f4552433732313a207472616e736665722066726f6d20696e636f72726563742060008201527f6f776e6572000000000000000000000000000000000000000000000000000000602082015250565b6000612309602583611965565b9150612314826122ad565b604082019050919050565b60006020820190508181036000830152612338816122fc565b9050919050565b7f4552433732313a207472616e7366657220746f20746865207a65726f2061646460008201527f7265737300000000000000000000000000000000000000000000000000000000602082015250565b600061239b602483611965565b91506123a68261233f565b604082019050919050565b600060208201905081810360008301526123ca8161238e565b9050919050565b7f4e487b7100000000000000000000000000000000000000000000000000000000600052601160045260246000fd5b600061240b82611a15565b915061241683611a15565b925082821015612429576124286123d1565b5b828203905092915050565b600061243f82611a15565b915061244a83611a15565b9250827fffffffffffffffffffffffffffffffffffffffffffffffffffffffffffffffff0382111561247f5761247e6123d1565b5b828201905092915050565b7f4552433732313a206d696e7420746f20746865207a65726f2061646472657373600082015250565b60006124c0602083611965565b91506124cb8261248a565b602082019050919050565b600060208201905081810360008301526124ef816124b3565b9050919050565b7f4552433732313a20746f6b656e20616c7265616479206d696e74656400000000600082015250565b600061252c601c83611965565b9150612537826124f6565b602082019050919050565b6000602082019050818103600083015261255b8161251f565b9050919050565b7f45524337323155524953746f726167653a2055524920736574206f66206e6f6e60008201527f6578697374656e7420746f6b656e000000000000000000000000000000000000602082015250565b60006125be602e83611965565b91506125c982612562565b604082019050919050565b600060208201905081810360008301526125ed816125b1565b9050919050565b7f4552433732313a20617070726f766520746f2063616c6c657200000000000000600082015250565b600061262a601983611965565b9150612635826125f4565b602082019050919050565b600060208201905081810360008301526126598161261d565b9050919050565b7f4552433732313a207472616e7366657220746f206e6f6e20455243373231526560008201527f63656976657220696d706c656d656e7465720000000000000000000000000000602082015250565b60006126bc603283611965565b91506126c782612660565b604082019050919050565b600060208201905081810360008301526126eb816126af565b9050919050565b600081519050919050565b600082825260208201905092915050565b6000612719826126f2565b61272381856126fd565b9350612733818560208601611976565b61273c816119a9565b840191505092915050565b600060808201905061275c6000830187611aaa565b6127696020830186611aaa565b6127766040830185611d11565b8181036060830152612788818461270e565b905095945050505050565b6000815190506127a2816118cb565b92915050565b6000602082840312156127be576127bd611895565b5b60006127cc84828501612793565b91505092915050565b60006127e082611a15565b91507fffffffffffffffffffffffffffffffffffffffffffffffffffffffffffffffff821415612813576128126123d1565b5b600182019050919050565b7f4e487b7100000000000000000000000000000000000000000000000000000000600052601260045260246000fd5b600061285882611a15565b915061286383611a15565b9250826128735761287261281e565b5b828204905092915050565b600061288982611a15565b915061289483611a15565b9250826128a4576128a361281e565b5b828206905092915050565b7f4e487b7100000000000000000000000000000000000000000000000000000000600052603260045260246000fdfea26469706673582212209be1ebd4bcd6403d6ae689d753e84723404761df7dcdad98ce8ca76d1eb2d55364736f6c63430008090033",
  "linkReferences": {},
  "deployedLinkReferences": {}
}