{
  "_format": "hh-sol-artifact-1",
  "contractName": "NFTMarket",
  "sourceName": "contracts/MarketPalce.sol",
  "abi": [
    {
      "inputs": [
        {
          "internalType": "address",
          "name": "_solTokenAddr",
          "type": "address"
        }
      ],
      "stateMutability": "nonpayable",
      "type": "constructor"
    },
    {
      "anonymous": false,
      "inputs": [
        {
          "indexed": true,
          "internalType": "uint256",
          "name": "itemId",
          "type": "uint256"
        },
        {
          "indexed": true,
          "internalType": "address",
          "name": "nftContract",
          "type": "address"
        },
        {
          "indexed": true,
          "internalType": "uint256",
          "name": "tokenId",
          "type": "uint256"
        },
        {
          "indexed": false,
          "internalType": "address",
          "name": "seller",
          "type": "address"
        },
        {
          "indexed": false,
          "internalType": "address",
          "name": "owner",
          "type": "address"
        },
        {
          "indexed": false,
          "internalType": "uint256",
          "name": "price",
          "type": "uint256"
        },
        {
          "indexed": false,
          "internalType": "bool",
          "name": "sold",
          "type": "bool"
        }
      ],
      "name": "MarketItemCreated",
      "type": "event"
    },
    {
      "inputs": [
        {
          "internalType": "address",
          "name": "nftContract",
          "type": "address"
        },
        {
          "internalType": "uint256",
          "name": "tokenId",
          "type": "uint256"
        },
        {
          "internalType": "uint256",
          "name": "price",
          "type": "uint256"
        }
      ],
      "name": "createMarketItem",
      "outputs": [],
      "stateMutability": "payable",
      "type": "function"
    },
    {
      "inputs": [
        {
          "internalType": "address",
          "name": "nftContract",
          "type": "address"
        },
        {
          "internalType": "uint256",
          "name": "itemId",
          "type": "uint256"
        }
      ],
      "name": "createMarketSale",
      "outputs": [],
      "stateMutability": "payable",
      "type": "function"
    },
    {
      "inputs": [],
      "name": "fetchMarketItems",
      "outputs": [
        {
          "components": [
            {
              "internalType": "uint256",
              "name": "itemId",
              "type": "uint256"
            },
            {
              "internalType": "address",
              "name": "nftContract",
              "type": "address"
            },
            {
              "internalType": "uint256",
              "name": "tokenId",
              "type": "uint256"
            },
            {
              "internalType": "address payable",
              "name": "seller",
              "type": "address"
            },
            {
              "internalType": "address payable",
              "name": "owner",
              "type": "address"
            },
            {
              "internalType": "uint256",
              "name": "price",
              "type": "uint256"
            },
            {
              "internalType": "bool",
              "name": "sold",
              "type": "bool"
            }
          ],
          "internalType": "struct NFTMarket.MarketItem[]",
          "name": "",
          "type": "tuple[]"
        }
      ],
      "stateMutability": "view",
      "type": "function"
    },
    {
      "inputs": [],
      "name": "getListingPrice",
      "outputs": [
        {
          "internalType": "uint256",
          "name": "",
          "type": "uint256"
        }
      ],
      "stateMutability": "view",
      "type": "function"
    },
    {
      "inputs": [],
      "name": "solTokenAddr",
      "outputs": [
        {
          "internalType": "address",
          "name": "",
          "type": "address"
        }
      ],
      "stateMutability": "view",
      "type": "function"
    }
  ],
  "bytecode": "0x60806040526658d15e176280006005553480156200001c57600080fd5b50604051620014753803806200147583398181016040528101906200004291906200013d565b600160008190555080600160006101000a81548173ffffffffffffffffffffffffffffffffffffffff021916908373ffffffffffffffffffffffffffffffffffffffff16021790555033600460006101000a81548173ffffffffffffffffffffffffffffffffffffffff021916908373ffffffffffffffffffffffffffffffffffffffff160217905550506200016f565b600080fd5b600073ffffffffffffffffffffffffffffffffffffffff82169050919050565b60006200010582620000d8565b9050919050565b6200011781620000f8565b81146200012357600080fd5b50565b60008151905062000137816200010c565b92915050565b600060208284031215620001565762000155620000d3565b5b6000620001668482850162000126565b91505092915050565b6112f6806200017f6000396000f3fe60806040526004361061004a5760003560e01c80630f08efe01461004f57806312e855851461007a57806358eb2df5146100a5578063c23b139e146100c1578063c60181a4146100dd575b600080fd5b34801561005b57600080fd5b50610064610108565b6040516100719190610d09565b60405180910390f35b34801561008657600080fd5b5061008f6103e7565b60405161009c9190610d3a565b60405180910390f35b6100bf60048036038101906100ba9190610db2565b6103f1565b005b6100db60048036038101906100d69190610e05565b610755565b005b3480156100e957600080fd5b506100f2610a6b565b6040516100ff9190610e54565b60405180910390f35b606060006101166002610a91565b905060006101246003610a91565b61012e6002610a91565b6101389190610e9e565b90506000808267ffffffffffffffff81111561015757610156610ed2565b5b60405190808252806020026020018201604052801561019057816020015b61017d610ab5565b8152602001906001900390816101755790505b50905060005b848110156103dc573073ffffffffffffffffffffffffffffffffffffffff16600660006001846101c69190610f01565b815260200190815260200160002060040160009054906101000a900473ffffffffffffffffffffffffffffffffffffffff1673ffffffffffffffffffffffffffffffffffffffff1614156103c9576000600660006001846102279190610f01565b81526020019081526020016000206000015490506000600660008381526020019081526020016000209050806040518060e0016040529081600082015481526020016001820160009054906101000a900473ffffffffffffffffffffffffffffffffffffffff1673ffffffffffffffffffffffffffffffffffffffff1673ffffffffffffffffffffffffffffffffffffffff168152602001600282015481526020016003820160009054906101000a900473ffffffffffffffffffffffffffffffffffffffff1673ffffffffffffffffffffffffffffffffffffffff1673ffffffffffffffffffffffffffffffffffffffff1681526020016004820160009054906101000a900473ffffffffffffffffffffffffffffffffffffffff1673ffffffffffffffffffffffffffffffffffffffff1673ffffffffffffffffffffffffffffffffffffffff168152602001600582015481526020016006820160009054906101000a900460ff1615151515815250508486815181106103ac576103ab610f57565b5b60200260200101819052506001856103c49190610f01565b945050505b80806103d490610f86565b915050610196565b508094505050505090565b6000600554905090565b60026000541415610437576040517f08c379a000000000000000000000000000000000000000000000000000000000815260040161042e9061102c565b60405180910390fd5b600260008190555060008111610482576040517f08c379a000000000000000000000000000000000000000000000000000000000815260040161047990611098565b60405180910390fd5b60055434146104c6576040517f08c379a00000000000000000000000000000000000000000000000000000000081526004016104bd9061112a565b60405180910390fd5b6104d06002610a9f565b60006104dc6002610a91565b90506040518060e001604052808281526020018573ffffffffffffffffffffffffffffffffffffffff1681526020018481526020013373ffffffffffffffffffffffffffffffffffffffff168152602001600073ffffffffffffffffffffffffffffffffffffffff16815260200183815260200160001515815250600660008381526020019081526020016000206000820151816000015560208201518160010160006101000a81548173ffffffffffffffffffffffffffffffffffffffff021916908373ffffffffffffffffffffffffffffffffffffffff1602179055506040820151816002015560608201518160030160006101000a81548173ffffffffffffffffffffffffffffffffffffffff021916908373ffffffffffffffffffffffffffffffffffffffff16021790555060808201518160040160006101000a81548173ffffffffffffffffffffffffffffffffffffffff021916908373ffffffffffffffffffffffffffffffffffffffff16021790555060a0820151816005015560c08201518160060160006101000a81548160ff0219169083151502179055509050508373ffffffffffffffffffffffffffffffffffffffff166323b872dd3330866040518463ffffffff1660e01b81526004016106bd9392919061114a565b600060405180830381600087803b1580156106d757600080fd5b505af11580156106eb573d6000803e3d6000fd5b50505050828473ffffffffffffffffffffffffffffffffffffffff16827f045dfa01dcba2b36aba1d3dc4a874f4b0c5d2fbeb8d2c4b34a7d88c8d8f929d133600087600060405161073f9493929190611190565b60405180910390a4506001600081905550505050565b6002600054141561079b576040517f08c379a00000000000000000000000000000000000000000000000000000000081526004016107929061102c565b60405180910390fd5b600260008190555060006006600083815260200190815260200160002060050154905060006006600084815260200190815260200160002060020154905081341461081b576040517f08c379a000000000000000000000000000000000000000000000000000000000815260040161081290611247565b60405180910390fd5b6006600084815260200190815260200160002060030160009054906101000a900473ffffffffffffffffffffffffffffffffffffffff1673ffffffffffffffffffffffffffffffffffffffff166108fc349081150290604051600060405180830381858888f19350505050158015610897573d6000803e3d6000fd5b50600160009054906101000a900473ffffffffffffffffffffffffffffffffffffffff1673ffffffffffffffffffffffffffffffffffffffff166323b872dd3330856040518463ffffffff1660e01b81526004016108f79392919061114a565b602060405180830381600087803b15801561091157600080fd5b505af1158015610925573d6000803e3d6000fd5b505050506040513d601f19601f820116820180604052508101906109499190611293565b508373ffffffffffffffffffffffffffffffffffffffff166323b872dd3033846040518463ffffffff1660e01b81526004016109879392919061114a565b600060405180830381600087803b1580156109a157600080fd5b505af11580156109b5573d6000803e3d6000fd5b5050505060016006600085815260200190815260200160002060060160006101000a81548160ff0219169083151502179055506109f26003610a9f565b600460009054906101000a900473ffffffffffffffffffffffffffffffffffffffff1673ffffffffffffffffffffffffffffffffffffffff166108fc6005549081150290604051600060405180830381858888f19350505050158015610a5c573d6000803e3d6000fd5b50505060016000819055505050565b600160009054906101000a900473ffffffffffffffffffffffffffffffffffffffff1681565b600081600001549050919050565b6001816000016000828254019250508190555050565b6040518060e0016040528060008152602001600073ffffffffffffffffffffffffffffffffffffffff16815260200160008152602001600073ffffffffffffffffffffffffffffffffffffffff168152602001600073ffffffffffffffffffffffffffffffffffffffff168152602001600081526020016000151581525090565b600081519050919050565b600082825260208201905092915050565b6000819050602082019050919050565b6000819050919050565b610b7581610b62565b82525050565b600073ffffffffffffffffffffffffffffffffffffffff82169050919050565b6000610ba682610b7b565b9050919050565b610bb681610b9b565b82525050565b6000610bc782610b7b565b9050919050565b610bd781610bbc565b82525050565b60008115159050919050565b610bf281610bdd565b82525050565b60e082016000820151610c0e6000850182610b6c565b506020820151610c216020850182610bad565b506040820151610c346040850182610b6c565b506060820151610c476060850182610bce565b506080820151610c5a6080850182610bce565b5060a0820151610c6d60a0850182610b6c565b5060c0820151610c8060c0850182610be9565b50505050565b6000610c928383610bf8565b60e08301905092915050565b6000602082019050919050565b6000610cb682610b36565b610cc08185610b41565b9350610ccb83610b52565b8060005b83811015610cfc578151610ce38882610c86565b9750610cee83610c9e565b925050600181019050610ccf565b5085935050505092915050565b60006020820190508181036000830152610d238184610cab565b905092915050565b610d3481610b62565b82525050565b6000602082019050610d4f6000830184610d2b565b92915050565b600080fd5b610d6381610b9b565b8114610d6e57600080fd5b50565b600081359050610d8081610d5a565b92915050565b610d8f81610b62565b8114610d9a57600080fd5b50565b600081359050610dac81610d86565b92915050565b600080600060608486031215610dcb57610dca610d55565b5b6000610dd986828701610d71565b9350506020610dea86828701610d9d565b9250506040610dfb86828701610d9d565b9150509250925092565b60008060408385031215610e1c57610e1b610d55565b5b6000610e2a85828601610d71565b9250506020610e3b85828601610d9d565b9150509250929050565b610e4e81610b9b565b82525050565b6000602082019050610e696000830184610e45565b92915050565b7f4e487b7100000000000000000000000000000000000000000000000000000000600052601160045260246000fd5b6000610ea982610b62565b9150610eb483610b62565b925082821015610ec757610ec6610e6f565b5b828203905092915050565b7f4e487b7100000000000000000000000000000000000000000000000000000000600052604160045260246000fd5b6000610f0c82610b62565b9150610f1783610b62565b9250827fffffffffffffffffffffffffffffffffffffffffffffffffffffffffffffffff03821115610f4c57610f4b610e6f565b5b828201905092915050565b7f4e487b7100000000000000000000000000000000000000000000000000000000600052603260045260246000fd5b6000610f9182610b62565b91507fffffffffffffffffffffffffffffffffffffffffffffffffffffffffffffffff821415610fc457610fc3610e6f565b5b600182019050919050565b600082825260208201905092915050565b7f5265656e7472616e637947756172643a207265656e7472616e742063616c6c00600082015250565b6000611016601f83610fcf565b915061102182610fe0565b602082019050919050565b6000602082019050818103600083015261104581611009565b9050919050565b7f5072696365206d757374206265206174206c6561737420312077656900000000600082015250565b6000611082601c83610fcf565b915061108d8261104c565b602082019050919050565b600060208201905081810360008301526110b181611075565b9050919050565b7f7072696365206d757374626520657175616c20746f206c697374696e6720707260008201527f6963650000000000000000000000000000000000000000000000000000000000602082015250565b6000611114602383610fcf565b915061111f826110b8565b604082019050919050565b6000602082019050818103600083015261114381611107565b9050919050565b600060608201905061115f6000830186610e45565b61116c6020830185610e45565b6111796040830184610d2b565b949350505050565b61118a81610bdd565b82525050565b60006080820190506111a56000830187610e45565b6111b26020830186610e45565b6111bf6040830185610d2b565b6111cc6060830184611181565b95945050505050565b7f506c65617365207375626d6974207468652061736b696e67207072696365206960008201527f6e206f7264657220746f20636f6d706c65746520746865207075726368617365602082015250565b6000611231604083610fcf565b915061123c826111d5565b604082019050919050565b6000602082019050818103600083015261126081611224565b9050919050565b61127081610bdd565b811461127b57600080fd5b50565b60008151905061128d81611267565b92915050565b6000602082840312156112a9576112a8610d55565b5b60006112b78482850161127e565b9150509291505056fea26469706673582212208f72d9b58dd8ed58920a9f98281d385f3c63ffe1646804b464c60d5df0b460f064736f6c63430008090033",
  "linkReferences": {},
  "deployedLinkReferences": {}
}